{
    "contractName": "HotelRoom",
    "abi": [
        {
            "inputs": [],
            "stateMutability": "nonpayable",
            "type": "constructor"
        },
        {
            "anonymous": false,
            "inputs": [
                {
                    "indexed": false,
                    "internalType": "address",
                    "name": "_occupant",
                    "type": "address"
                },
                {
                    "indexed": false,
                    "internalType": "uint256",
                    "name": "_value",
                    "type": "uint256"
                }
            ],
            "name": "Occupy",
            "type": "event"
        },
        {
            "inputs": [],
            "name": "Book",
            "outputs": [],
            "stateMutability": "payable",
            "type": "function"
        },
        {
            "inputs": [],
            "name": "currentStatus",
            "outputs": [
                {
                    "internalType": "enum HotelRoom.Status",
                    "name": "",
                    "type": "uint8"
                }
            ],
            "stateMutability": "view",
            "type": "function"
        },
        {
            "inputs": [],
            "name": "owner",
            "outputs": [
                {
                    "internalType": "address payable",
                    "name": "",
                    "type": "address"
                }
            ],
            "stateMutability": "view",
            "type": "function"
        }
    ],
    "bytecode": "608060405234801561001057600080fd5b506000805460ff196101003302166001600160a81b031990911617905561025f8061003c6000396000f3fe6080604052600436106100345760003560e01c80634ad4c538146100395780638da5cb5b14610043578063ef8a923514610085575b600080fd5b6100416100ac565b005b34801561004f57600080fd5b506000546100689061010090046001600160a01b031681565b6040516001600160a01b0390911681526020015b60405180910390f35b34801561009157600080fd5b5060005461009f9060ff1681565b60405161007c9190610201565b6000805460ff1660018111156100c4576100c46101eb565b1461010b5760405162461bcd60e51b815260206004820152601260248201527110dd5c9c995b9d1b1e481bd8d8dd5c1a595960721b60448201526064015b60405180910390fd5b671bc16d674ec80000803410156101645760405162461bcd60e51b815260206004820152601a60248201527f4e6f7420656e6f7567682065746865722070726f7669646564210000000000006044820152606401610102565b6000805460ff19166001178082556040516101009091046001600160a01b0316916108fc34801591909102929091818181858888f193505050501580156101af573d6000803e3d6000fd5b50604080513381523460208201527fba951166d42eb077151bdecb7cf6027562f04f0143b0c141b1bb0a33eef5d693910160405180910390a150565b634e487b7160e01b600052602160045260246000fd5b602081016002831061022357634e487b7160e01b600052602160045260246000fd5b9190529056fea2646970667358221220ea06cab07319b42603619e9abc5d6c012d854241410ea9e4bcbc67b053056e7064736f6c63430008110033",
    "sourcePath": "c:/Users/91706/Desktop/BookHotel/Contracts/book.sol",
    "compiler": {
        "name": "solc",
        "version": "0.8.17+commit.8df45f5f"
    },
    "functionHashes": {
        "Book()": "4ad4c538",
        "currentStatus()": "ef8a9235",
        "owner()": "8da5cb5b"
    },
    "gasEstimates": {
        "creation": {
            "codeDepositCost": "121400",
            "executionCost": "24423",
            "totalCost": "145823"
        },
        "external": {
            "Book()": "infinite",
            "currentStatus()": "2373",
            "owner()": "2337"
        }
    }
}